:08000000803102288731ED2F49
:10096E0016302100970008002000110E890C013965
:10097E00080079082000B5007808B400080079084E
:10098E002000B9007808B800080079082000B700E8
:10099E007808B6000800640080010131890BD32C61
:1009AE000034683021009900980122009601080059
:1009BE00F93020009B009A01911004309C00080031
:1009CE000C302600930091019201CF3025009E0538
:1009DE0008000C3026009A00980199013F3025003E
:1009EE009E05080085311525843186315B268431BC
:1009FE007208013EF2000030733DF3000800200043
:100A0E00911E0A2D0B2D062DF70123009D1C102D76
:100A1E00112D132D1D121D161908080002308531D7
:100A2E00DD25853102308531FA2585310030F8001B
:100A3E00F9008531812585310030F800F9008531C6
:100A4E0098258531080022008C018D016730210028
:100A5E008C0027308D0023008D0104308C00240083
:100A6E008D018C012100951722009D019E01080029
:100A7E0002308531FA25853101308531DD2585310C
:100A8E000030F800F900853181258531F430F80009
:100A9E000130F90085319825853108000230853105
:100AAE00DD25853101308531FA258531EA30F800B2
:100ABE000130F9008531812585310030F800F900CB
:100ACE00853198258531080085312A258531843177
:100ADE00D82485318431B72485318431F024853191
:100AEE008431E72485318431DF2485318631172620
:100AFE00853108007908FB007808FA00FB36FA0CFD
:100B0E00FB36FA0C7A082600910078080339FA00B1
:100B1E000430FA35890B902D1308CF397A049300DF
:100B2E0008007908FB007808FA00FB36FA0CFB3651
:100B3E00FA0C7A082600980078080339FA00043077
:100B4E00FA35890BA72D1A08CF397A049A000800B6
:100B5E0000308531DD25853100308531FA2585312E
:100B6E00E030F8000130F900853181258531E03023
:100B7E00F8000130F90085319825853108000130E3
:100B8E008531DD25853101308531FA258531EA3013
:100B9E00F8000130F900853181258531F430F800F7
:100BAE000130F9008531982585310800F800780864
:100BBE00031DE22DE32DE72D22008D170D13F92DC8
:100BCE007803031DEB2DEC2DF02D22008D130D1748
:100BDE00F92D02307806031DF52DF62DF92D220084
:100BEE008D170D170800F8007808031DFF2D002E35
:100BFE00042E22008D150D12162E7803031D082EBD
:100C0E00092E0D2E22008D110D16162E023078068D
:100C1E00031D122E132E162E22008D150D160800F2
:100C2E00083023009F0090309D0024309E006730D6
:100C3E009B009C010030F8000030F9008431C6247E
:100C4E0086310030F8000030F9008431CC24863132
:100C5E000030F8000030F9008431C0248631F701ED
:100C6E000800F901FA0122008C17A630890B3D2EDF
:100C7E00003222008C131A30F8005230890B452EA8
:100C8E00F80B452E0130F9070030FA3D7A08803A0C
:100C9E00F80080307802031D562E32307902031C84
:100CAE00592E5A2E3A2E0800F901FA0122008C17FD
:100CBE00D63000320032890B602E003222008C13A7
:100CCE001930F8000530890B6A2EF80B6A2E0000D9
:100CDE000130F9070030FA3D7A08803AF80080308A
:100CEE007802031D7C2E32307902031C7F2E802E5B
:100CFE005D2E080085316B258631952E8531C625F2
:100D0E0086318230FD00DE30890B8B2EFD0B8B2E53
:100D1E007208013EF2000030733DF3007208730456
:100D2E0003199A2E9B2E852E9F2E8631BF26863135
:100D3E0020008D1EA32EA42EAA2E72037304031957
:100D4E00A92EAA2E9C2E8D1AAD2EAE2EB52E843126
:100D5E00F9248631B52E8731352786310230720659
:100D6E0073040319BB2EBC2EB22E952E8031022891
:100D7E0020000C1CC32EC42ED02E0D18C72EC82E2C
:100D8E00D02E8C18CB2ECC2ED02E853155258631DB
:100D9E00342F0C18D32ED42EE02E0D18D72ED82E7D
:100DAE00E02E8C1CDB2EDC2EE02E85313F2586318D
:100DBE00342F0C18E32EE42EF02E0D1CE72EE82E09
:100DCE00F02E8C18EB2EEC2EF02E8531C6258631AA
:100DDE00342F0C1CF32EF42EFD2E0D1CF72EF82E98
:100DEE00FD2E8C1CFB2EFC2EFD2ECC2E0C18002F57
:100DFE00012F0A2F0D1C042F052F0A2F8C1C082FD4
:100E0E00092F0A2FDC2E0C1C0D2F0E2F172F0D1C49
:100E1E00112F122F172F8C18152F162F172FCC2E90
:100E2E000C1C1A2F1B2F272F0D181E2F1F2F272F8D
:100E3E008C1C222F232F272F8531AF258631342F5F
:100E4E000C182A2F2B2F342F0D182E2F2F2F342F17
:100E5E008C18322F332F342F232F0800E42F853197
:100E6E0006258731FC007C082000AA0031302A06B6
:100E7E00031D422F432F482F0A30F4000030F50097
:100E8E00E42F32302A06031D4D2F4E2F532F1430D0
:100E9E00F4000030F500352F33302A06031D582F8D
:100EAE00592F5E2F1E30F4000030F500E42F343041
:100EBE002A06031D632F642F692F2830F40000309B
:100ECE00F500352F35302A06031D6E2F6F2F742F28
:100EDE003230F4000030F500352F36302A06031D6F
:100EEE00792F7A2F7F2F3C30F4000030F500352F0C
:100EFE0037302A06031D842F852F8A2F4630F400A3
:100F0E000030F500352F38302A06031D8F2F902F15
:100F1E00952F5030F4000030F500E42F39302A06BA
:100F2E00031D9A2F9B2FA02F5A30F4000030F5008E
:100F3E00352F71302A06031DA52FA62FA72F9B2F05
:100F4E0046302A06031DAC2FAD2FB12F8531C62595
:100F5E008731352F42302A06031DB62FB72FBB2FF0
:100F6E008531AF258731352F4C302A06031DC02F12
:100F7E00C12FC52F853155258731352F52302A0681
:100F8E00031DCA2FCB2FCF2F85313F258731352F0C
:100F9E0053302A06031DD42FD52FD92F8531152571
:100FAE008731352F57302A06031DDE2FDF2FE32F13
:100FBE00863138268731352F352F8431BB24873142
:100FCE00013A0319EB2FEC2F362F080070308400F6
:100FDE000030850008308431D224873120308400DF
:100FEE000030850014308431D224873120008631C0
:020FFE00812E42
:020000040001F9
:08000000FF3FFF3FFF3FFF3F00
:04000E00E43FFF3E8E
:00000001FF
